:100000000C9434000C9448000C9474000C9446003A
:100010000C9446000C9446000C9446000C94460048
:100020000C9446000C9446000C9446000C94460038
:100030000C9446000C9446000C9446000C94460028
:100040000C9446000C9446000C9446000C94460018
:100050000C9446000C9446000C9446000C94460008
:100060000C9446000C94460011241FBECFEFD8E03C
:10007000DEBFCDBF21E0A0E0B1E001C01D92A23003
:10008000B207E1F70E94A1000C94C3000C94000099
:100090001F920F920FB60F9211242F938F939F935D
:1000A0002FEF80E792E0215080409040E1F700C0C0
:1000B00000004A9911C080910101880F80930101CD
:1000C000809100018F5F8093000185B190910101C3
:1000D000807C9F73892B85B99F918F912F910F9071
:1000E0000FBE0F901F9018951F920F920FB60F9290
:1000F00011242F938F939F932FEF80E792E021504D
:1001000080409040E1F700C000004B9912C0809100
:100110000101880F816080930101809100018F5F50
:100120008093000185B190910101807C9F73892BA0
:1001300085B99F918F912F910F900FBE0F901F90B7
:10014000189584B18F6384B98AB1837F8AB98BB1E2
:100150008C608BB980916900826080936900809186
:1001600069008E7F80936900809169008860809328
:100170006900809169008B7F809369008DB38360F3
:0A0180008DBB7894FFCFF894FFCFF9
:00000001FF
