:100000000C9434000C943E000C943E000C943E0082
:100010000C943E000C943E000C943E000C943E0068
:100020000C943E000C943E000C943E000C943E0058
:100030000C943E000C943E000C943E000C943E0048
:100040000C943E000C943E000C943E000C943E0038
:100050000C943E000C943E000C943E000C943E0028
:100060000C943E000C943E0011241FBECFEFD8E04C
:10007000DEBFCDBF0E9440000C9462000C940000D3
:1000800057985F9A84B18F6384B981E090E029B179
:10009000322F307827FD14C0882391F02FEF40E7EE
:1000A00082E0215040408040E1F700C000004F99BD
:1000B00007C09F5F85B1807C292F2F73822B85B964
:0800C000832FE5CFF894FFCF78
:00000001FF
