:100000000C9434000C9448000C9446000C94460068
:100010000C9446000C9446000C9446000C94460048
:100020000C9446000C9446000C9446000C94460038
:100030000C9446000C9446000C9446000C94460028
:100040000C9446000C9446000C9446000C94460018
:100050000C9446000C9446000C9446000C94460008
:100060000C9446000C94460011241FBECFEFD8E03C
:10007000DEBFCDBF21E0A0E0B1E001C01D92A13004
:10008000B207E1F70E9464000C9475000C94000024
:100090001F920F920FB60F9211248F939F934F9937
:1000A0000CC0809100018F5F8093000185B1909119
:1000B0000001807C9F73892B85B99F918F910F9050
:1000C0000FBE0F901F901895529884B18F6384B91A
:1000D00080916900826080936900809169008E7FC1
:0E00E000809369007894E89AFFCFF894FFCFE0
:00000001FF
