:100000000C9434000C9440000C943E000C943E0080
:100010000C943E000C943E000C943E000C943E0068
:100020000C943E000C943E000C943E000C943E0058
:100030000C943E000C943E000C943E000C943E0048
:100040000C943E000C943E000C943E000C943E0038
:100050000C943E000C943E000C943E000C943E0028
:100060000C943E000C943E0011241FBECFEFD8E04C
:10007000DEBFCDBF0E9452000C9461000C940000C2
:100080001F920F920FB60F9211248F939F9385B1F9
:1000900091E0892785B99F918F910F900FBE0F90A6
:1000A0001F9018955298209A8091690082608093E1
:1000B0006900809169008E7F809369007894E89A46
:0600C000FFCFF894FFCF12
:00000001FF
