:100000000C9434000C9449000C9449000C94490061
:100010000C9449000C9449000C9449000C9449003C
:100020000C9449000C9449000C9449000C9449002C
:100030000C9449000C9449000C9449000C9449001C
:100040000C9449000C9449000C9449000C9449000C
:100050000C9449000C9449000C9449000C944900FC
:100060000C9449000C94490011241FBECFEFD8E036
:10007000DEBFCDBF11E0A0E0B1E0EEEEF0E002C0E7
:1000800005900D92A630B107D9F70E944B000C9451
:1000900075000C940000CF93DF9300D000D000D007
:1000A000CDB7DEB784B18F6084B986E0E0E0F1E0DF
:1000B000DE01119601900D928A95E1F79E01295F6C
:1000C0003F4FFE01319685B19191807F892B85B993
:1000D0004FEF83EC99E0415080409040E1F700C041
:0E00E0000000E217F30779F7ECCFF894FFCF9A
:0600EE00010204080402F7
:00000001FF
