:100000000C9434000C9449000C9449000C94490061
:100010000C9449000C9449000C9449000C9449003C
:100020000C9449000C9449000C9449000C9449002C
:100030000C9449000C9449000C9449000C9449001C
:100040000C9449000C9449000C9449000C9449000C
:100050000C9449000C9449000C9449000C944900FC
:100060000C9449000C94490011241FBECFEFD8E036
:10007000DEBFCDBF11E0A0E0B1E0E4E1F1E002C0FD
:1000800005900D92A630B107D9F70E945C000C9440
:1000900088000C940000569A84B5836884BD85B5A9
:1000A000836085BD89EF87BD80E887BD089584B5ED
:1000B0008F7784BD5E980895CF93DF9300D000D0F2
:1000C00000D0CDB7DEB784B18F6084B90E944B00F9
:1000D00086E0E0E0F1E0DE01119601900D928A9554
:1000E000E1F79E01295F3F4FFE01319685B1919165
:1000F000807F892B85B94FEF83EC99E04150804098
:100100009040E1F700C00000E217F30779F7ECCF69
:04011000F894FFCF91
:06011400010204080402D0
:00000001FF
