:100000000C9434000C943E000C943E000C943E0082
:100010000C943E000C943E000C943E000C943E0068
:100020000C943E000C943E000C943E000C943E0058
:100030000C943E000C943E000C943E000C943E0048
:100040000C943E000C943E000C943E000C943E0038
:100050000C943E000C943E000C943E000C943E0028
:100060000C943E000C943E0011241FBECFEFD8E04C
:10007000DEBFCDBF0E9447000C948D000C940000A1
:1000800095B5987F95BD95B5892B85BD0895569AF0
:1000900084B5836084BD84B5806884BD8FE787BDE7
:1000A00082E00E9440002FEF83ED90E321508040DA
:1000B0009040E1F700C0000083E00E9440002FEF75
:1000C00083ED90E3215080409040E1F700C00000B4
:1000D00084E00E9440002FEF83ED90E321508040A8
:1000E0009040E1F700C0000085E00E9440002FEF43
:1000F00083ED90E3215080409040E1F700C0000084
:1001000085B5887F85BD2FEF89E698E12150804035
:0E0110009040E1F700C00000C3CFF894FFCF8D
:00000001FF
