:100000000C9434000C943E000C943E000C943E0082
:100010000C943E000C943E000C943E000C943E0068
:100020000C943E000C943E000C943E000C943E0058
:100030000C943E000C943E000C943E000C943E0048
:100040000C943E000C943E000C943E000C943E0038
:100050000C943E000C943E000C943E000C943E0028
:100060000C943E000C943E0011241FBECFEFD8E04C
:10007000DEBFCDBF0E945B000C9472000C940000A8
:10008000EAE7F0E0808180688083808187608083F8
:10009000ECE7F0E0808181668083089580917A00AA
:1000A000806480937A0080917A0084FFFCCF8091F5
:1000B000790090E0089539988FEF8AB90E94400046
:1000C0000E944E008BB980917A00806180937A0003
:1000D0002FEF81EE94E0215080409040E1F700C086
:0800E0000000EECFF894FFCF01
:00000001FF
