:100000000C9434000C943E000C943E000C943E0082
:100010000C943E000C943E000C943E000C943E0068
:100020000C943E000C943E000C943E000C943E0058
:100030000C943E000C943E000C943E000C943E0048
:100040000C943E000C943E000C943E000C943E0038
:100050000C943E000C943E000C943E000C943E0028
:100060000C943E000C943E0011241FBECFEFD8E04C
:10007000DEBFCDBF0E946B000C9480000C9400008A
:10008000EAE7F0E0808180688083808187608083F8
:10009000ECE7F0E080818F77808380818F7B8083A5
:1000A00080818F7D80838081807F8083089580918F
:1000B0007A00806480937A0080917A0084FFFCCF7C
:1000C000809178002091790090917A0090619093CE
:1000D0007A00922F08953898509A0E9440000E940A
:1000E00057000F9758F4589A2FEF81EE94E0215063
:1000F00080409040E1F700C00000F1CF5898F4CF65
:04010000F894FFCFA1
:00000001FF
