:100000000C9434000C943E000C943E000C943E0082
:100010000C943E000C943E000C943E000C943E0068
:100020000C943E000C943E000C943E000C943E0058
:100030000C943E000C943E000C943E000C943E0048
:100040000C943E000C943E000C943E000C943E0038
:100050000C943E000C943E000C943E000C943E0028
:100060000C943E000C943E0011241FBECFEFD8E04C
:10007000DEBFCDBF0E9453000C9465000C940000BD
:1000800081E680937C0087E880937A0008958091D0
:100090007A00806480937A0080917A0086FDFCCF9C
:1000A00080917900089539988FEF8AB90E944000B5
:1000B0000E9447008BB92FEF83EC99E021508040DC
:0E00C0009040E1F700C00000F3CFF894FFCFAE
:00000001FF
