:100000000C9434000C943E000C943E000C943E0082
:100010000C943E000C943E000C943E000C943E0068
:100020000C943E000C943E000C943E000C943E0058
:100030000C943E000C943E000C943E000C943E0048
:100040000C943E000C943E000C943E000C943E0038
:100050000C943E000C943E000C943E000C943E0028
:100060000C943E000C943E0011241FBECFEFD8E04C
:10007000DEBFCDBF0E944E000C9456000C940000D1
:100080008DE790E026E034E026BD14BC35BDA89B8A
:10009000FECFA89A0197C1F715BC0895259AC0E232
:1000A00085B18C2785B90E944000FACFF894FFCF24
:00000001FF
