:100000000C9434000C9446000C9446000C9446006A
:100010000C9446000C9446000C9446000C94460048
:100020000C9446000C9446000C9446000C94460038
:100030000C9446000C9446000C9446000C94460028
:100040000C9448000C9446000C9446000C94460016
:100050000C9446000C9446000C9446000C94460008
:100060000C9446000C94460011241FBECFEFD8E03C
:10007000DEBFCDBF21E0A0E0B1E001C01D92A13004
:10008000B207E1F70E946E000C9473000C9400001C
:100090001F920F920FB60F9211248F939F9380910E
:1000A00000018F5F8093000180910001893130F061
:1000B00085B190E2892785B9109200019F918F91B7
:1000C0000F900FBE0F901F90189514BC84E085BD53
:1000D00081E080936E0086E086BD0895259A0E9497
:0A00E00065007894FFCFF894FFCF7D
:00000001FF
