:100000000C9434000C9446000C9446000C9446006A
:100010000C9446000C9446000C9446000C94460048
:100020000C9446000C9446000C9446000C94460038
:100030000C9446000C946D000C9446000C94460001
:100040000C9448000C9446000C9446000C94460016
:100050000C9446000C9446000C9446000C94460008
:100060000C9446000C94460011241FBECFEFD8E03C
:10007000DEBFCDBF21E0A0E0B1E001C01D92A43001
:10008000B207E1F70E9497000C94A0000C940000C6
:100090001F920F920FB60F9211248F939F9380910E
:1000A0000201909103010196909303018093020154
:1000B0008091020190910301499740F085B190E24F
:1000C000892785B910920301109202019F918F91A7
:1000D0000F900FBE0F901F9018951F920F920FB6A2
:1000E0000F9211248F939F9385B191E0892785B951
:1000F0009F918F910F900FBE0F901F90189514BC79
:1001000084E085BD81E080936E0083E886BD08951C
:100110001092800084E08093810081E080936F00E2
:100120008EEE95E89093850080938400089584B1C5
:10013000816284B90E947F000E9488007894FFCF7A
:04014000F894FFCF61
:00000001FF
