:100000000C9434000C9451000C9451000C94510049
:100010000C9451000C9451000C9451000C9451001C
:100020000C9451000C9451000C9451000C9451000C
:100030000C9451000C9453000C9451000C945100FA
:100040000C9451000C9451000C9451000C945100EC
:100050000C9451000C9451000C9451000C945100DC
:100060000C9451000C94510011241FBECFEFD8E026
:10007000DEBFCDBF11E0A0E0B1E0E6EBF1E002C0F1
:1000800005900D92A630B107D9F721E0A6E0B1E0C6
:1000900001C01D92A730B207E1F70E947F000C94C7
:1000A000D9000C9400001F920F920FB60F921124EA
:1000B0008F939F938091060191E089278093060199
:1000C00080910601882341F02D9A9F918F910F9086
:1000D0000FBE0F901F9018952D98F7CF10928000AB
:1000E00084E0809381008CED9BE090938500809369
:1000F0008400EFE6F0E08081816080830895CF93F3
:10010000DF9300D000D000D0CDB7DEB78FEF84B939
:100110000E946E00789486E0E0E0F1E0DE01119646
:1001200001900D928A95E1F780E0E6E0F0E025B1DC
:1001300090E0207FA1E0B0E0AC0FBD1FA80FB91F79
:100140003C91232B25B90196BF010E94B1002FEFEE
:1001500031EE94E0215030409040E1F700C00000C3
:10016000E6CF97FB072E16F4009407D077FD09D051
:100170000E94C50007FC05D03EF4909581959F4FE5
:100180000895709561957F4F0895AA1BBB1B51E19F
:1001900007C0AA1FBB1FA617B70710F0A61BB70BF7
:1001A000881F991F5A95A9F780959095BC01CD019C
:0601B0000895F894FFCF52
:0601B6000102040804022E
:00000001FF
